{
	"data": {
		"bytecode": {
			"linkReferences": {},
			"object": "608060405234801561000f575f80fd5b5060405161106a38038061106a83398181016040528101906100319190610128565b825f806101000a81548173ffffffffffffffffffffffffffffffffffffffff021916908373ffffffffffffffffffffffffffffffffffffffff1602179055508160018190555080600281905550505050610178565b5f80fd5b5f73ffffffffffffffffffffffffffffffffffffffff82169050919050565b5f6100b38261008a565b9050919050565b5f6100c4826100a9565b9050919050565b6100d4816100ba565b81146100de575f80fd5b50565b5f815190506100ef816100cb565b92915050565b5f819050919050565b610107816100f5565b8114610111575f80fd5b50565b5f81519050610122816100fe565b92915050565b5f805f6060848603121561013f5761013e610086565b5b5f61014c868287016100e1565b935050602061015d86828701610114565b925050604061016e86828701610114565b9150509250925092565b610ee5806101855f395ff3fe608060405260043610610054575f3560e01c806373b4086b146100585780637c3a00fd14610098578063aa452fa6146100c2578063b2016bd4146100ea578063ba1be55414610114578063f966ade71461013e575b5f80fd5b348015610063575f80fd5b5061007e60048036038101906100799190610842565b610148565b60405161008f9594939291906108ae565b60405180910390f35b3480156100a3575f80fd5b506100ac6101a5565b6040516100b991906108ff565b60405180910390f35b3480156100cd575f80fd5b506100e860048036038101906100e39190610942565b6101ab565b005b3480156100f5575f80fd5b506100fe61046e565b60405161010b91906109db565b60405180910390f35b34801561011f575f80fd5b50610128610491565b60405161013591906108ff565b60405180910390f35b610146610497565b005b6003602052805f5260405f205f91509050805f015f9054906101000a900473ffffffffffffffffffffffffffffffffffffffff1690806001015490806002015490806003015490806004015f9054906101000a900460ff16905085565b60015481565b5f60035f3373ffffffffffffffffffffffffffffffffffffffff1673ffffffffffffffffffffffffffffffffffffffff1681526020019081526020015f2090505f8160020154148061022057505f816002015411801561021f575060011515816004015f9054906101000a900460ff161515145b5b61025f576040517f08c379a000000000000000000000000000000000000000000000000000000000815260040161025690610a4e565b60405180910390fd5b5f6064600254856102709190610a99565b61027a9190610b07565b9050808310156102bf576040517f08c379a00000000000000000000000000000000000000000000000000000000081526004016102b690610b81565b60405180910390fd5b6102c930846106d0565b610308576040517f08c379a00000000000000000000000000000000000000000000000000000000081526004016102ff90610be9565b60405180910390fd5b5f6040518060a001604052803373ffffffffffffffffffffffffffffffffffffffff1681526020018681526020018581526020014281526020015f1515815250905061035433866106d0565b508060035f3373ffffffffffffffffffffffffffffffffffffffff1673ffffffffffffffffffffffffffffffffffffffff1681526020019081526020015f205f820151815f015f6101000a81548173ffffffffffffffffffffffffffffffffffffffff021916908373ffffffffffffffffffffffffffffffffffffffff1602179055506020820151816001015560408201518160020155606082015181600301556080820151816004015f6101000a81548160ff0219169083151502179055509050503373ffffffffffffffffffffffffffffffffffffffff167f1f4fa8bbaa124ef8d04466f13d5a2572fb712424cee0bc9cf430aec52439acd7868660405161045f929190610c07565b60405180910390a25050505050565b5f8054906101000a900473ffffffffffffffffffffffffffffffffffffffff1681565b60025481565b5f60035f3373ffffffffffffffffffffffffffffffffffffffff1673ffffffffffffffffffffffffffffffffffffffff1681526020019081526020015f2090505f81600101541161051d576040517f08c379a000000000000000000000000000000000000000000000000000000000815260040161051490610c78565b60405180910390fd5b5f61052782610743565b9050600254811061056d576040517f08c379a000000000000000000000000000000000000000000000000000000000815260040161056490610d06565b60405180910390fd5b5f61057783610788565b9050803410156105bc576040517f08c379a00000000000000000000000000000000000000000000000000000000081526004016105b390610d6e565b60405180910390fd5b5f8054906101000a900473ffffffffffffffffffffffffffffffffffffffff1673ffffffffffffffffffffffffffffffffffffffff1663a9059cbb3385600201546040518363ffffffff1660e01b815260040161061a929190610d8c565b6020604051808303815f875af1158015610636573d5f803e3d5ffd5b505050506040513d601f19601f8201168201806040525081019061065a9190610ddd565b506001836004015f6101000a81548160ff0219169083151502179055503373ffffffffffffffffffffffffffffffffffffffff167fc7ce0a35f17b490de2a317e7fecb2cae86b1abffb03800b2f4928235213826988460010154346040516106c3929190610c07565b60405180910390a2505050565b5f808373ffffffffffffffffffffffffffffffffffffffff16836040516106f690610e35565b5f6040518083038185875af1925050503d805f8114610730576040519150601f19603f3d011682016040523d82523d5f602084013e610735565b606091505b505090508091505092915050565b5f8061074e83610788565b90505f8360010154826107619190610e49565b905083600101546064826107759190610a99565b61077f9190610b07565b92505050919050565b5f8082600301544261079a9190610e49565b90505f63bbf81e008260015486600101546107b59190610a99565b6107bf9190610a99565b6107c99190610b07565b90508084600101546107db9190610e7c565b92505050919050565b5f80fd5b5f73ffffffffffffffffffffffffffffffffffffffff82169050919050565b5f610811826107e8565b9050919050565b61082181610807565b811461082b575f80fd5b50565b5f8135905061083c81610818565b92915050565b5f60208284031215610857576108566107e4565b5b5f6108648482850161082e565b91505092915050565b61087681610807565b82525050565b5f819050919050565b61088e8161087c565b82525050565b5f8115159050919050565b6108a881610894565b82525050565b5f60a0820190506108c15f83018861086d565b6108ce6020830187610885565b6108db6040830186610885565b6108e86060830185610885565b6108f5608083018461089f565b9695505050505050565b5f6020820190506109125f830184610885565b92915050565b6109218161087c565b811461092b575f80fd5b50565b5f8135905061093c81610918565b92915050565b5f8060408385031215610958576109576107e4565b5b5f6109658582860161092e565b92505060206109768582860161092e565b9150509250929050565b5f819050919050565b5f6109a361099e610999846107e8565b610980565b6107e8565b9050919050565b5f6109b482610989565b9050919050565b5f6109c5826109aa565b9050919050565b6109d5816109bb565b82525050565b5f6020820190506109ee5f8301846109cc565b92915050565b5f82825260208201905092915050565b7f596f75206861766520616e206f70656e206c6f616e20210000000000000000005f82015250565b5f610a386017836109f4565b9150610a4382610a04565b602082019050919050565b5f6020820190508181035f830152610a6581610a2c565b9050919050565b7f4e487b71000000000000000000000000000000000000000000000000000000005f52601160045260245ffd5b5f610aa38261087c565b9150610aae8361087c565b9250828202610abc8161087c565b91508282048414831517610ad357610ad2610a6c565b5b5092915050565b7f4e487b71000000000000000000000000000000000000000000000000000000005f52601260045260245ffd5b5f610b118261087c565b9150610b1c8361087c565b925082610b2c57610b2b610ada565b5b828204905092915050565b7f496e73756666696369656e7420436f6c6c61746572616c0000000000000000005f82015250565b5f610b6b6017836109f4565b9150610b7682610b37565b602082019050919050565b5f6020820190508181035f830152610b9881610b5f565b9050919050565b7f5472616e73666572206661696c656400000000000000000000000000000000005f82015250565b5f610bd3600f836109f4565b9150610bde82610b9f565b602082019050919050565b5f6020820190508181035f830152610c0081610bc7565b9050919050565b5f604082019050610c1a5f830185610885565b610c276020830184610885565b9392505050565b7f4e6f20616374697665206c6f616e0000000000000000000000000000000000005f82015250565b5f610c62600e836109f4565b9150610c6d82610c2e565b602082019050919050565b5f6020820190508181035f830152610c8f81610c56565b9050919050565b7f436f6c6c61746572616c697a6174696f6e20726174696f2061626f7665206d695f8201527f6e696d756d000000000000000000000000000000000000000000000000000000602082015250565b5f610cf06025836109f4565b9150610cfb82610c96565b604082019050919050565b5f6020820190508181035f830152610d1d81610ce4565b9050919050565b7f496e73756666696369656e742066756e647300000000000000000000000000005f82015250565b5f610d586012836109f4565b9150610d6382610d24565b602082019050919050565b5f6020820190508181035f830152610d8581610d4c565b9050919050565b5f604082019050610d9f5f83018561086d565b610dac6020830184610885565b9392505050565b610dbc81610894565b8114610dc6575f80fd5b50565b5f81519050610dd781610db3565b92915050565b5f60208284031215610df257610df16107e4565b5b5f610dff84828501610dc9565b91505092915050565b5f81905092915050565b50565b5f610e205f83610e08565b9150610e2b82610e12565b5f82019050919050565b5f610e3f82610e15565b9150819050919050565b5f610e538261087c565b9150610e5e8361087c565b9250828203905081811115610e7657610e75610a6c565b5b92915050565b5f610e868261087c565b9150610e918361087c565b9250828201905080821115610ea957610ea8610a6c565b5b9291505056fea26469706673582212207eed740b576380f76085834430487184b6ab17f84fc1459797fc260d1cdbdee064736f6c63430008190033",
			"opcodes": "PUSH1 0x80 PUSH1 0x40 MSTORE CALLVALUE DUP1 ISZERO PUSH2 0xF JUMPI PUSH0 DUP1 REVERT JUMPDEST POP PUSH1 0x40 MLOAD PUSH2 0x106A CODESIZE SUB DUP1 PUSH2 0x106A DUP4 CODECOPY DUP2 DUP2 ADD PUSH1 0x40 MSTORE DUP2 ADD SWAP1 PUSH2 0x31 SWAP2 SWAP1 PUSH2 0x128 JUMP JUMPDEST DUP3 PUSH0 DUP1 PUSH2 0x100 EXP DUP2 SLOAD DUP2 PUSH20 0xFFFFFFFFFFFFFFFFFFFFFFFFFFFFFFFFFFFFFFFF MUL NOT AND SWAP1 DUP4 PUSH20 0xFFFFFFFFFFFFFFFFFFFFFFFFFFFFFFFFFFFFFFFF AND MUL OR SWAP1 SSTORE POP DUP2 PUSH1 0x1 DUP2 SWAP1 SSTORE POP DUP1 PUSH1 0x2 DUP2 SWAP1 SSTORE POP POP POP POP PUSH2 0x178 JUMP JUMPDEST PUSH0 DUP1 REVERT JUMPDEST PUSH0 PUSH20 0xFFFFFFFFFFFFFFFFFFFFFFFFFFFFFFFFFFFFFFFF DUP3 AND SWAP1 POP SWAP2 SWAP1 POP JUMP JUMPDEST PUSH0 PUSH2 0xB3 DUP3 PUSH2 0x8A JUMP JUMPDEST SWAP1 POP SWAP2 SWAP1 POP JUMP JUMPDEST PUSH0 PUSH2 0xC4 DUP3 PUSH2 0xA9 JUMP JUMPDEST SWAP1 POP SWAP2 SWAP1 POP JUMP JUMPDEST PUSH2 0xD4 DUP2 PUSH2 0xBA JUMP JUMPDEST DUP2 EQ PUSH2 0xDE JUMPI PUSH0 DUP1 REVERT JUMPDEST POP JUMP JUMPDEST PUSH0 DUP2 MLOAD SWAP1 POP PUSH2 0xEF DUP2 PUSH2 0xCB JUMP JUMPDEST SWAP3 SWAP2 POP POP JUMP JUMPDEST PUSH0 DUP2 SWAP1 POP SWAP2 SWAP1 POP JUMP JUMPDEST PUSH2 0x107 DUP2 PUSH2 0xF5 JUMP JUMPDEST DUP2 EQ PUSH2 0x111 JUMPI PUSH0 DUP1 REVERT JUMPDEST POP JUMP JUMPDEST PUSH0 DUP2 MLOAD SWAP1 POP PUSH2 0x122 DUP2 PUSH2 0xFE JUMP JUMPDEST SWAP3 SWAP2 POP POP JUMP JUMPDEST PUSH0 DUP1 PUSH0 PUSH1 0x60 DUP5 DUP7 SUB SLT ISZERO PUSH2 0x13F JUMPI PUSH2 0x13E PUSH2 0x86 JUMP JUMPDEST JUMPDEST PUSH0 PUSH2 0x14C DUP7 DUP3 DUP8 ADD PUSH2 0xE1 JUMP JUMPDEST SWAP4 POP POP PUSH1 0x20 PUSH2 0x15D DUP7 DUP3 DUP8 ADD PUSH2 0x114 JUMP JUMPDEST SWAP3 POP POP PUSH1 0x40 PUSH2 0x16E DUP7 DUP3 DUP8 ADD PUSH2 0x114 JUMP JUMPDEST SWAP2 POP POP SWAP3 POP SWAP3 POP SWAP3 JUMP JUMPDEST PUSH2 0xEE5 DUP1 PUSH2 0x185 PUSH0 CODECOPY PUSH0 RETURN INVALID PUSH1 0x80 PUSH1 0x40 MSTORE PUSH1 0x4 CALLDATASIZE LT PUSH2 0x54 JUMPI PUSH0 CALLDATALOAD PUSH1 0xE0 SHR DUP1 PUSH4 0x73B4086B EQ PUSH2 0x58 JUMPI DUP1 PUSH4 0x7C3A00FD EQ PUSH2 0x98 JUMPI DUP1 PUSH4 0xAA452FA6 EQ PUSH2 0xC2 JUMPI DUP1 PUSH4 0xB2016BD4 EQ PUSH2 0xEA JUMPI DUP1 PUSH4 0xBA1BE554 EQ PUSH2 0x114 JUMPI DUP1 PUSH4 0xF966ADE7 EQ PUSH2 0x13E JUMPI JUMPDEST PUSH0 DUP1 REVERT JUMPDEST CALLVALUE DUP1 ISZERO PUSH2 0x63 JUMPI PUSH0 DUP1 REVERT JUMPDEST POP PUSH2 0x7E PUSH1 0x4 DUP1 CALLDATASIZE SUB DUP2 ADD SWAP1 PUSH2 0x79 SWAP2 SWAP1 PUSH2 0x842 JUMP JUMPDEST PUSH2 0x148 JUMP JUMPDEST PUSH1 0x40 MLOAD PUSH2 0x8F SWAP6 SWAP5 SWAP4 SWAP3 SWAP2 SWAP1 PUSH2 0x8AE JUMP JUMPDEST PUSH1 0x40 MLOAD DUP1 SWAP2 SUB SWAP1 RETURN JUMPDEST CALLVALUE DUP1 ISZERO PUSH2 0xA3 JUMPI PUSH0 DUP1 REVERT JUMPDEST POP PUSH2 0xAC PUSH2 0x1A5 JUMP JUMPDEST PUSH1 0x40 MLOAD PUSH2 0xB9 SWAP2 SWAP1 PUSH2 0x8FF JUMP JUMPDEST PUSH1 0x40 MLOAD DUP1 SWAP2 SUB SWAP1 RETURN JUMPDEST CALLVALUE DUP1 ISZERO PUSH2 0xCD JUMPI PUSH0 DUP1 REVERT JUMPDEST POP PUSH2 0xE8 PUSH1 0x4 DUP1 CALLDATASIZE SUB DUP2 ADD SWAP1 PUSH2 0xE3 SWAP2 SWAP1 PUSH2 0x942 JUMP JUMPDEST PUSH2 0x1AB JUMP JUMPDEST STOP JUMPDEST CALLVALUE DUP1 ISZERO PUSH2 0xF5 JUMPI PUSH0 DUP1 REVERT JUMPDEST POP PUSH2 0xFE PUSH2 0x46E JUMP JUMPDEST PUSH1 0x40 MLOAD PUSH2 0x10B SWAP2 SWAP1 PUSH2 0x9DB JUMP JUMPDEST PUSH1 0x40 MLOAD DUP1 SWAP2 SUB SWAP1 RETURN JUMPDEST CALLVALUE DUP1 ISZERO PUSH2 0x11F JUMPI PUSH0 DUP1 REVERT JUMPDEST POP PUSH2 0x128 PUSH2 0x491 JUMP JUMPDEST PUSH1 0x40 MLOAD PUSH2 0x135 SWAP2 SWAP1 PUSH2 0x8FF JUMP JUMPDEST PUSH1 0x40 MLOAD DUP1 SWAP2 SUB SWAP1 RETURN JUMPDEST PUSH2 0x146 PUSH2 0x497 JUMP JUMPDEST STOP JUMPDEST PUSH1 0x3 PUSH1 0x20 MSTORE DUP1 PUSH0 MSTORE PUSH1 0x40 PUSH0 KECCAK256 PUSH0 SWAP2 POP SWAP1 POP DUP1 PUSH0 ADD PUSH0 SWAP1 SLOAD SWAP1 PUSH2 0x100 EXP SWAP1 DIV PUSH20 0xFFFFFFFFFFFFFFFFFFFFFFFFFFFFFFFFFFFFFFFF AND SWAP1 DUP1 PUSH1 0x1 ADD SLOAD SWAP1 DUP1 PUSH1 0x2 ADD SLOAD SWAP1 DUP1 PUSH1 0x3 ADD SLOAD SWAP1 DUP1 PUSH1 0x4 ADD PUSH0 SWAP1 SLOAD SWAP1 PUSH2 0x100 EXP SWAP1 DIV PUSH1 0xFF AND SWAP1 POP DUP6 JUMP JUMPDEST PUSH1 0x1 SLOAD DUP2 JUMP JUMPDEST PUSH0 PUSH1 0x3 PUSH0 CALLER PUSH20 0xFFFFFFFFFFFFFFFFFFFFFFFFFFFFFFFFFFFFFFFF AND PUSH20 0xFFFFFFFFFFFFFFFFFFFFFFFFFFFFFFFFFFFFFFFF AND DUP2 MSTORE PUSH1 0x20 ADD SWAP1 DUP2 MSTORE PUSH1 0x20 ADD PUSH0 KECCAK256 SWAP1 POP PUSH0 DUP2 PUSH1 0x2 ADD SLOAD EQ DUP1 PUSH2 0x220 JUMPI POP PUSH0 DUP2 PUSH1 0x2 ADD SLOAD GT DUP1 ISZERO PUSH2 0x21F JUMPI POP PUSH1 0x1 ISZERO ISZERO DUP2 PUSH1 0x4 ADD PUSH0 SWAP1 SLOAD SWAP1 PUSH2 0x100 EXP SWAP1 DIV PUSH1 0xFF AND ISZERO ISZERO EQ JUMPDEST JUMPDEST PUSH2 0x25F JUMPI PUSH1 0x40 MLOAD PUSH32 0x8C379A000000000000000000000000000000000000000000000000000000000 DUP2 MSTORE PUSH1 0x4 ADD PUSH2 0x256 SWAP1 PUSH2 0xA4E JUMP JUMPDEST PUSH1 0x40 MLOAD DUP1 SWAP2 SUB SWAP1 REVERT JUMPDEST PUSH0 PUSH1 0x64 PUSH1 0x2 SLOAD DUP6 PUSH2 0x270 SWAP2 SWAP1 PUSH2 0xA99 JUMP JUMPDEST PUSH2 0x27A SWAP2 SWAP1 PUSH2 0xB07 JUMP JUMPDEST SWAP1 POP DUP1 DUP4 LT ISZERO PUSH2 0x2BF JUMPI PUSH1 0x40 MLOAD PUSH32 0x8C379A000000000000000000000000000000000000000000000000000000000 DUP2 MSTORE PUSH1 0x4 ADD PUSH2 0x2B6 SWAP1 PUSH2 0xB81 JUMP JUMPDEST PUSH1 0x40 MLOAD DUP1 SWAP2 SUB SWAP1 REVERT JUMPDEST PUSH2 0x2C9 ADDRESS DUP5 PUSH2 0x6D0 JUMP JUMPDEST PUSH2 0x308 JUMPI PUSH1 0x40 MLOAD PUSH32 0x8C379A000000000000000000000000000000000000000000000000000000000 DUP2 MSTORE PUSH1 0x4 ADD PUSH2 0x2FF SWAP1 PUSH2 0xBE9 JUMP JUMPDEST PUSH1 0x40 MLOAD DUP1 SWAP2 SUB SWAP1 REVERT JUMPDEST PUSH0 PUSH1 0x40 MLOAD DUP1 PUSH1 0xA0 ADD PUSH1 0x40 MSTORE DUP1 CALLER PUSH20 0xFFFFFFFFFFFFFFFFFFFFFFFFFFFFFFFFFFFFFFFF AND DUP2 MSTORE PUSH1 0x20 ADD DUP7 DUP2 MSTORE PUSH1 0x20 ADD DUP6 DUP2 MSTORE PUSH1 0x20 ADD TIMESTAMP DUP2 MSTORE PUSH1 0x20 ADD PUSH0 ISZERO ISZERO DUP2 MSTORE POP SWAP1 POP PUSH2 0x354 CALLER DUP7 PUSH2 0x6D0 JUMP JUMPDEST POP DUP1 PUSH1 0x3 PUSH0 CALLER PUSH20 0xFFFFFFFFFFFFFFFFFFFFFFFFFFFFFFFFFFFFFFFF AND PUSH20 0xFFFFFFFFFFFFFFFFFFFFFFFFFFFFFFFFFFFFFFFF AND DUP2 MSTORE PUSH1 0x20 ADD SWAP1 DUP2 MSTORE PUSH1 0x20 ADD PUSH0 KECCAK256 PUSH0 DUP3 ADD MLOAD DUP2 PUSH0 ADD PUSH0 PUSH2 0x100 EXP DUP2 SLOAD DUP2 PUSH20 0xFFFFFFFFFFFFFFFFFFFFFFFFFFFFFFFFFFFFFFFF MUL NOT AND SWAP1 DUP4 PUSH20 0xFFFFFFFFFFFFFFFFFFFFFFFFFFFFFFFFFFFFFFFF AND MUL OR SWAP1 SSTORE POP PUSH1 0x20 DUP3 ADD MLOAD DUP2 PUSH1 0x1 ADD SSTORE PUSH1 0x40 DUP3 ADD MLOAD DUP2 PUSH1 0x2 ADD SSTORE PUSH1 0x60 DUP3 ADD MLOAD DUP2 PUSH1 0x3 ADD SSTORE PUSH1 0x80 DUP3 ADD MLOAD DUP2 PUSH1 0x4 ADD PUSH0 PUSH2 0x100 EXP DUP2 SLOAD DUP2 PUSH1 0xFF MUL NOT AND SWAP1 DUP4 ISZERO ISZERO MUL OR SWAP1 SSTORE POP SWAP1 POP POP CALLER PUSH20 0xFFFFFFFFFFFFFFFFFFFFFFFFFFFFFFFFFFFFFFFF AND PUSH32 0x1F4FA8BBAA124EF8D04466F13D5A2572FB712424CEE0BC9CF430AEC52439ACD7 DUP7 DUP7 PUSH1 0x40 MLOAD PUSH2 0x45F SWAP3 SWAP2 SWAP1 PUSH2 0xC07 JUMP JUMPDEST PUSH1 0x40 MLOAD DUP1 SWAP2 SUB SWAP1 LOG2 POP POP POP POP POP JUMP JUMPDEST PUSH0 DUP1 SLOAD SWAP1 PUSH2 0x100 EXP SWAP1 DIV PUSH20 0xFFFFFFFFFFFFFFFFFFFFFFFFFFFFFFFFFFFFFFFF AND DUP2 JUMP JUMPDEST PUSH1 0x2 SLOAD DUP2 JUMP JUMPDEST PUSH0 PUSH1 0x3 PUSH0 CALLER PUSH20 0xFFFFFFFFFFFFFFFFFFFFFFFFFFFFFFFFFFFFFFFF AND PUSH20 0xFFFFFFFFFFFFFFFFFFFFFFFFFFFFFFFFFFFFFFFF AND DUP2 MSTORE PUSH1 0x20 ADD SWAP1 DUP2 MSTORE PUSH1 0x20 ADD PUSH0 KECCAK256 SWAP1 POP PUSH0 DUP2 PUSH1 0x1 ADD SLOAD GT PUSH2 0x51D JUMPI PUSH1 0x40 MLOAD PUSH32 0x8C379A000000000000000000000000000000000000000000000000000000000 DUP2 MSTORE PUSH1 0x4 ADD PUSH2 0x514 SWAP1 PUSH2 0xC78 JUMP JUMPDEST PUSH1 0x40 MLOAD DUP1 SWAP2 SUB SWAP1 REVERT JUMPDEST PUSH0 PUSH2 0x527 DUP3 PUSH2 0x743 JUMP JUMPDEST SWAP1 POP PUSH1 0x2 SLOAD DUP2 LT PUSH2 0x56D JUMPI PUSH1 0x40 MLOAD PUSH32 0x8C379A000000000000000000000000000000000000000000000000000000000 DUP2 MSTORE PUSH1 0x4 ADD PUSH2 0x564 SWAP1 PUSH2 0xD06 JUMP JUMPDEST PUSH1 0x40 MLOAD DUP1 SWAP2 SUB SWAP1 REVERT JUMPDEST PUSH0 PUSH2 0x577 DUP4 PUSH2 0x788 JUMP JUMPDEST SWAP1 POP DUP1 CALLVALUE LT ISZERO PUSH2 0x5BC JUMPI PUSH1 0x40 MLOAD PUSH32 0x8C379A000000000000000000000000000000000000000000000000000000000 DUP2 MSTORE PUSH1 0x4 ADD PUSH2 0x5B3 SWAP1 PUSH2 0xD6E JUMP JUMPDEST PUSH1 0x40 MLOAD DUP1 SWAP2 SUB SWAP1 REVERT JUMPDEST PUSH0 DUP1 SLOAD SWAP1 PUSH2 0x100 EXP SWAP1 DIV PUSH20 0xFFFFFFFFFFFFFFFFFFFFFFFFFFFFFFFFFFFFFFFF AND PUSH20 0xFFFFFFFFFFFFFFFFFFFFFFFFFFFFFFFFFFFFFFFF AND PUSH4 0xA9059CBB CALLER DUP6 PUSH1 0x2 ADD SLOAD PUSH1 0x40 MLOAD DUP4 PUSH4 0xFFFFFFFF AND PUSH1 0xE0 SHL DUP2 MSTORE PUSH1 0x4 ADD PUSH2 0x61A SWAP3 SWAP2 SWAP1 PUSH2 0xD8C JUMP JUMPDEST PUSH1 0x20 PUSH1 0x40 MLOAD DUP1 DUP4 SUB DUP2 PUSH0 DUP8 GAS CALL ISZERO DUP1 ISZERO PUSH2 0x636 JUMPI RETURNDATASIZE PUSH0 DUP1 RETURNDATACOPY RETURNDATASIZE PUSH0 REVERT JUMPDEST POP POP POP POP PUSH1 0x40 MLOAD RETURNDATASIZE PUSH1 0x1F NOT PUSH1 0x1F DUP3 ADD AND DUP3 ADD DUP1 PUSH1 0x40 MSTORE POP DUP2 ADD SWAP1 PUSH2 0x65A SWAP2 SWAP1 PUSH2 0xDDD JUMP JUMPDEST POP PUSH1 0x1 DUP4 PUSH1 0x4 ADD PUSH0 PUSH2 0x100 EXP DUP2 SLOAD DUP2 PUSH1 0xFF MUL NOT AND SWAP1 DUP4 ISZERO ISZERO MUL OR SWAP1 SSTORE POP CALLER PUSH20 0xFFFFFFFFFFFFFFFFFFFFFFFFFFFFFFFFFFFFFFFF AND PUSH32 0xC7CE0A35F17B490DE2A317E7FECB2CAE86B1ABFFB03800B2F492823521382698 DUP5 PUSH1 0x1 ADD SLOAD CALLVALUE PUSH1 0x40 MLOAD PUSH2 0x6C3 SWAP3 SWAP2 SWAP1 PUSH2 0xC07 JUMP JUMPDEST PUSH1 0x40 MLOAD DUP1 SWAP2 SUB SWAP1 LOG2 POP POP POP JUMP JUMPDEST PUSH0 DUP1 DUP4 PUSH20 0xFFFFFFFFFFFFFFFFFFFFFFFFFFFFFFFFFFFFFFFF AND DUP4 PUSH1 0x40 MLOAD PUSH2 0x6F6 SWAP1 PUSH2 0xE35 JUMP JUMPDEST PUSH0 PUSH1 0x40 MLOAD DUP1 DUP4 SUB DUP2 DUP6 DUP8 GAS CALL SWAP3 POP POP POP RETURNDATASIZE DUP1 PUSH0 DUP2 EQ PUSH2 0x730 JUMPI PUSH1 0x40 MLOAD SWAP2 POP PUSH1 0x1F NOT PUSH1 0x3F RETURNDATASIZE ADD AND DUP3 ADD PUSH1 0x40 MSTORE RETURNDATASIZE DUP3 MSTORE RETURNDATASIZE PUSH0 PUSH1 0x20 DUP5 ADD RETURNDATACOPY PUSH2 0x735 JUMP JUMPDEST PUSH1 0x60 SWAP2 POP JUMPDEST POP POP SWAP1 POP DUP1 SWAP2 POP POP SWAP3 SWAP2 POP POP JUMP JUMPDEST PUSH0 DUP1 PUSH2 0x74E DUP4 PUSH2 0x788 JUMP JUMPDEST SWAP1 POP PUSH0 DUP4 PUSH1 0x1 ADD SLOAD DUP3 PUSH2 0x761 SWAP2 SWAP1 PUSH2 0xE49 JUMP JUMPDEST SWAP1 POP DUP4 PUSH1 0x1 ADD SLOAD PUSH1 0x64 DUP3 PUSH2 0x775 SWAP2 SWAP1 PUSH2 0xA99 JUMP JUMPDEST PUSH2 0x77F SWAP2 SWAP1 PUSH2 0xB07 JUMP JUMPDEST SWAP3 POP POP POP SWAP2 SWAP1 POP JUMP JUMPDEST PUSH0 DUP1 DUP3 PUSH1 0x3 ADD SLOAD TIMESTAMP PUSH2 0x79A SWAP2 SWAP1 PUSH2 0xE49 JUMP JUMPDEST SWAP1 POP PUSH0 PUSH4 0xBBF81E00 DUP3 PUSH1 0x1 SLOAD DUP7 PUSH1 0x1 ADD SLOAD PUSH2 0x7B5 SWAP2 SWAP1 PUSH2 0xA99 JUMP JUMPDEST PUSH2 0x7BF SWAP2 SWAP1 PUSH2 0xA99 JUMP JUMPDEST PUSH2 0x7C9 SWAP2 SWAP1 PUSH2 0xB07 JUMP JUMPDEST SWAP1 POP DUP1 DUP5 PUSH1 0x1 ADD SLOAD PUSH2 0x7DB SWAP2 SWAP1 PUSH2 0xE7C JUMP JUMPDEST SWAP3 POP POP POP SWAP2 SWAP1 POP JUMP JUMPDEST PUSH0 DUP1 REVERT JUMPDEST PUSH0 PUSH20 0xFFFFFFFFFFFFFFFFFFFFFFFFFFFFFFFFFFFFFFFF DUP3 AND SWAP1 POP SWAP2 SWAP1 POP JUMP JUMPDEST PUSH0 PUSH2 0x811 DUP3 PUSH2 0x7E8 JUMP JUMPDEST SWAP1 POP SWAP2 SWAP1 POP JUMP JUMPDEST PUSH2 0x821 DUP2 PUSH2 0x807 JUMP JUMPDEST DUP2 EQ PUSH2 0x82B JUMPI PUSH0 DUP1 REVERT JUMPDEST POP JUMP JUMPDEST PUSH0 DUP2 CALLDATALOAD SWAP1 POP PUSH2 0x83C DUP2 PUSH2 0x818 JUMP JUMPDEST SWAP3 SWAP2 POP POP JUMP JUMPDEST PUSH0 PUSH1 0x20 DUP3 DUP5 SUB SLT ISZERO PUSH2 0x857 JUMPI PUSH2 0x856 PUSH2 0x7E4 JUMP JUMPDEST JUMPDEST PUSH0 PUSH2 0x864 DUP5 DUP3 DUP6 ADD PUSH2 0x82E JUMP JUMPDEST SWAP2 POP POP SWAP3 SWAP2 POP POP JUMP JUMPDEST PUSH2 0x876 DUP2 PUSH2 0x807 JUMP JUMPDEST DUP3 MSTORE POP POP JUMP JUMPDEST PUSH0 DUP2 SWAP1 POP SWAP2 SWAP1 POP JUMP JUMPDEST PUSH2 0x88E DUP2 PUSH2 0x87C JUMP JUMPDEST DUP3 MSTORE POP POP JUMP JUMPDEST PUSH0 DUP2 ISZERO ISZERO SWAP1 POP SWAP2 SWAP1 POP JUMP JUMPDEST PUSH2 0x8A8 DUP2 PUSH2 0x894 JUMP JUMPDEST DUP3 MSTORE POP POP JUMP JUMPDEST PUSH0 PUSH1 0xA0 DUP3 ADD SWAP1 POP PUSH2 0x8C1 PUSH0 DUP4 ADD DUP9 PUSH2 0x86D JUMP JUMPDEST PUSH2 0x8CE PUSH1 0x20 DUP4 ADD DUP8 PUSH2 0x885 JUMP JUMPDEST PUSH2 0x8DB PUSH1 0x40 DUP4 ADD DUP7 PUSH2 0x885 JUMP JUMPDEST PUSH2 0x8E8 PUSH1 0x60 DUP4 ADD DUP6 PUSH2 0x885 JUMP JUMPDEST PUSH2 0x8F5 PUSH1 0x80 DUP4 ADD DUP5 PUSH2 0x89F JUMP JUMPDEST SWAP7 SWAP6 POP POP POP POP POP POP JUMP JUMPDEST PUSH0 PUSH1 0x20 DUP3 ADD SWAP1 POP PUSH2 0x912 PUSH0 DUP4 ADD DUP5 PUSH2 0x885 JUMP JUMPDEST SWAP3 SWAP2 POP POP JUMP JUMPDEST PUSH2 0x921 DUP2 PUSH2 0x87C JUMP JUMPDEST DUP2 EQ PUSH2 0x92B JUMPI PUSH0 DUP1 REVERT JUMPDEST POP JUMP JUMPDEST PUSH0 DUP2 CALLDATALOAD SWAP1 POP PUSH2 0x93C DUP2 PUSH2 0x918 JUMP JUMPDEST SWAP3 SWAP2 POP POP JUMP JUMPDEST PUSH0 DUP1 PUSH1 0x40 DUP4 DUP6 SUB SLT ISZERO PUSH2 0x958 JUMPI PUSH2 0x957 PUSH2 0x7E4 JUMP JUMPDEST JUMPDEST PUSH0 PUSH2 0x965 DUP6 DUP3 DUP7 ADD PUSH2 0x92E JUMP JUMPDEST SWAP3 POP POP PUSH1 0x20 PUSH2 0x976 DUP6 DUP3 DUP7 ADD PUSH2 0x92E JUMP JUMPDEST SWAP2 POP POP SWAP3 POP SWAP3 SWAP1 POP JUMP JUMPDEST PUSH0 DUP2 SWAP1 POP SWAP2 SWAP1 POP JUMP JUMPDEST PUSH0 PUSH2 0x9A3 PUSH2 0x99E PUSH2 0x999 DUP5 PUSH2 0x7E8 JUMP JUMPDEST PUSH2 0x980 JUMP JUMPDEST PUSH2 0x7E8 JUMP JUMPDEST SWAP1 POP SWAP2 SWAP1 POP JUMP JUMPDEST PUSH0 PUSH2 0x9B4 DUP3 PUSH2 0x989 JUMP JUMPDEST SWAP1 POP SWAP2 SWAP1 POP JUMP JUMPDEST PUSH0 PUSH2 0x9C5 DUP3 PUSH2 0x9AA JUMP JUMPDEST SWAP1 POP SWAP2 SWAP1 POP JUMP JUMPDEST PUSH2 0x9D5 DUP2 PUSH2 0x9BB JUMP JUMPDEST DUP3 MSTORE POP POP JUMP JUMPDEST PUSH0 PUSH1 0x20 DUP3 ADD SWAP1 POP PUSH2 0x9EE PUSH0 DUP4 ADD DUP5 PUSH2 0x9CC JUMP JUMPDEST SWAP3 SWAP2 POP POP JUMP JUMPDEST PUSH0 DUP3 DUP3 MSTORE PUSH1 0x20 DUP3 ADD SWAP1 POP SWAP3 SWAP2 POP POP JUMP JUMPDEST PUSH32 0x596F75206861766520616E206F70656E206C6F616E2021000000000000000000 PUSH0 DUP3 ADD MSTORE POP JUMP JUMPDEST PUSH0 PUSH2 0xA38 PUSH1 0x17 DUP4 PUSH2 0x9F4 JUMP JUMPDEST SWAP2 POP PUSH2 0xA43 DUP3 PUSH2 0xA04 JUMP JUMPDEST PUSH1 0x20 DUP3 ADD SWAP1 POP SWAP2 SWAP1 POP JUMP JUMPDEST PUSH0 PUSH1 0x20 DUP3 ADD SWAP1 POP DUP2 DUP2 SUB PUSH0 DUP4 ADD MSTORE PUSH2 0xA65 DUP2 PUSH2 0xA2C JUMP JUMPDEST SWAP1 POP SWAP2 SWAP1 POP JUMP JUMPDEST PUSH32 0x4E487B7100000000000000000000000000000000000000000000000000000000 PUSH0 MSTORE PUSH1 0x11 PUSH1 0x4 MSTORE PUSH1 0x24 PUSH0 REVERT JUMPDEST PUSH0 PUSH2 0xAA3 DUP3 PUSH2 0x87C JUMP JUMPDEST SWAP2 POP PUSH2 0xAAE DUP4 PUSH2 0x87C JUMP JUMPDEST SWAP3 POP DUP3 DUP3 MUL PUSH2 0xABC DUP2 PUSH2 0x87C JUMP JUMPDEST SWAP2 POP DUP3 DUP3 DIV DUP5 EQ DUP4 ISZERO OR PUSH2 0xAD3 JUMPI PUSH2 0xAD2 PUSH2 0xA6C JUMP JUMPDEST JUMPDEST POP SWAP3 SWAP2 POP POP JUMP JUMPDEST PUSH32 0x4E487B7100000000000000000000000000000000000000000000000000000000 PUSH0 MSTORE PUSH1 0x12 PUSH1 0x4 MSTORE PUSH1 0x24 PUSH0 REVERT JUMPDEST PUSH0 PUSH2 0xB11 DUP3 PUSH2 0x87C JUMP JUMPDEST SWAP2 POP PUSH2 0xB1C DUP4 PUSH2 0x87C JUMP JUMPDEST SWAP3 POP DUP3 PUSH2 0xB2C JUMPI PUSH2 0xB2B PUSH2 0xADA JUMP JUMPDEST JUMPDEST DUP3 DUP3 DIV SWAP1 POP SWAP3 SWAP2 POP POP JUMP JUMPDEST PUSH32 0x496E73756666696369656E7420436F6C6C61746572616C000000000000000000 PUSH0 DUP3 ADD MSTORE POP JUMP JUMPDEST PUSH0 PUSH2 0xB6B PUSH1 0x17 DUP4 PUSH2 0x9F4 JUMP JUMPDEST SWAP2 POP PUSH2 0xB76 DUP3 PUSH2 0xB37 JUMP JUMPDEST PUSH1 0x20 DUP3 ADD SWAP1 POP SWAP2 SWAP1 POP JUMP JUMPDEST PUSH0 PUSH1 0x20 DUP3 ADD SWAP1 POP DUP2 DUP2 SUB PUSH0 DUP4 ADD MSTORE PUSH2 0xB98 DUP2 PUSH2 0xB5F JUMP JUMPDEST SWAP1 POP SWAP2 SWAP1 POP JUMP JUMPDEST PUSH32 0x5472616E73666572206661696C65640000000000000000000000000000000000 PUSH0 DUP3 ADD MSTORE POP JUMP JUMPDEST PUSH0 PUSH2 0xBD3 PUSH1 0xF DUP4 PUSH2 0x9F4 JUMP JUMPDEST SWAP2 POP PUSH2 0xBDE DUP3 PUSH2 0xB9F JUMP JUMPDEST PUSH1 0x20 DUP3 ADD SWAP1 POP SWAP2 SWAP1 POP JUMP JUMPDEST PUSH0 PUSH1 0x20 DUP3 ADD SWAP1 POP DUP2 DUP2 SUB PUSH0 DUP4 ADD MSTORE PUSH2 0xC00 DUP2 PUSH2 0xBC7 JUMP JUMPDEST SWAP1 POP SWAP2 SWAP1 POP JUMP JUMPDEST PUSH0 PUSH1 0x40 DUP3 ADD SWAP1 POP PUSH2 0xC1A PUSH0 DUP4 ADD DUP6 PUSH2 0x885 JUMP JUMPDEST PUSH2 0xC27 PUSH1 0x20 DUP4 ADD DUP5 PUSH2 0x885 JUMP JUMPDEST SWAP4 SWAP3 POP POP POP JUMP JUMPDEST PUSH32 0x4E6F20616374697665206C6F616E000000000000000000000000000000000000 PUSH0 DUP3 ADD MSTORE POP JUMP JUMPDEST PUSH0 PUSH2 0xC62 PUSH1 0xE DUP4 PUSH2 0x9F4 JUMP JUMPDEST SWAP2 POP PUSH2 0xC6D DUP3 PUSH2 0xC2E JUMP JUMPDEST PUSH1 0x20 DUP3 ADD SWAP1 POP SWAP2 SWAP1 POP JUMP JUMPDEST PUSH0 PUSH1 0x20 DUP3 ADD SWAP1 POP DUP2 DUP2 SUB PUSH0 DUP4 ADD MSTORE PUSH2 0xC8F DUP2 PUSH2 0xC56 JUMP JUMPDEST SWAP1 POP SWAP2 SWAP1 POP JUMP JUMPDEST PUSH32 0x436F6C6C61746572616C697A6174696F6E20726174696F2061626F7665206D69 PUSH0 DUP3 ADD MSTORE PUSH32 0x6E696D756D000000000000000000000000000000000000000000000000000000 PUSH1 0x20 DUP3 ADD MSTORE POP JUMP JUMPDEST PUSH0 PUSH2 0xCF0 PUSH1 0x25 DUP4 PUSH2 0x9F4 JUMP JUMPDEST SWAP2 POP PUSH2 0xCFB DUP3 PUSH2 0xC96 JUMP JUMPDEST PUSH1 0x40 DUP3 ADD SWAP1 POP SWAP2 SWAP1 POP JUMP JUMPDEST PUSH0 PUSH1 0x20 DUP3 ADD SWAP1 POP DUP2 DUP2 SUB PUSH0 DUP4 ADD MSTORE PUSH2 0xD1D DUP2 PUSH2 0xCE4 JUMP JUMPDEST SWAP1 POP SWAP2 SWAP1 POP JUMP JUMPDEST PUSH32 0x496E73756666696369656E742066756E64730000000000000000000000000000 PUSH0 DUP3 ADD MSTORE POP JUMP JUMPDEST PUSH0 PUSH2 0xD58 PUSH1 0x12 DUP4 PUSH2 0x9F4 JUMP JUMPDEST SWAP2 POP PUSH2 0xD63 DUP3 PUSH2 0xD24 JUMP JUMPDEST PUSH1 0x20 DUP3 ADD SWAP1 POP SWAP2 SWAP1 POP JUMP JUMPDEST PUSH0 PUSH1 0x20 DUP3 ADD SWAP1 POP DUP2 DUP2 SUB PUSH0 DUP4 ADD MSTORE PUSH2 0xD85 DUP2 PUSH2 0xD4C JUMP JUMPDEST SWAP1 POP SWAP2 SWAP1 POP JUMP JUMPDEST PUSH0 PUSH1 0x40 DUP3 ADD SWAP1 POP PUSH2 0xD9F PUSH0 DUP4 ADD DUP6 PUSH2 0x86D JUMP JUMPDEST PUSH2 0xDAC PUSH1 0x20 DUP4 ADD DUP5 PUSH2 0x885 JUMP JUMPDEST SWAP4 SWAP3 POP POP POP JUMP JUMPDEST PUSH2 0xDBC DUP2 PUSH2 0x894 JUMP JUMPDEST DUP2 EQ PUSH2 0xDC6 JUMPI PUSH0 DUP1 REVERT JUMPDEST POP JUMP JUMPDEST PUSH0 DUP2 MLOAD SWAP1 POP PUSH2 0xDD7 DUP2 PUSH2 0xDB3 JUMP JUMPDEST SWAP3 SWAP2 POP POP JUMP JUMPDEST PUSH0 PUSH1 0x20 DUP3 DUP5 SUB SLT ISZERO PUSH2 0xDF2 JUMPI PUSH2 0xDF1 PUSH2 0x7E4 JUMP JUMPDEST JUMPDEST PUSH0 PUSH2 0xDFF DUP5 DUP3 DUP6 ADD PUSH2 0xDC9 JUMP JUMPDEST SWAP2 POP POP SWAP3 SWAP2 POP POP JUMP JUMPDEST PUSH0 DUP2 SWAP1 POP SWAP3 SWAP2 POP POP JUMP JUMPDEST POP JUMP JUMPDEST PUSH0 PUSH2 0xE20 PUSH0 DUP4 PUSH2 0xE08 JUMP JUMPDEST SWAP2 POP PUSH2 0xE2B DUP3 PUSH2 0xE12 JUMP JUMPDEST PUSH0 DUP3 ADD SWAP1 POP SWAP2 SWAP1 POP JUMP JUMPDEST PUSH0 PUSH2 0xE3F DUP3 PUSH2 0xE15 JUMP JUMPDEST SWAP2 POP DUP2 SWAP1 POP SWAP2 SWAP1 POP JUMP JUMPDEST PUSH0 PUSH2 0xE53 DUP3 PUSH2 0x87C JUMP JUMPDEST SWAP2 POP PUSH2 0xE5E DUP4 PUSH2 0x87C JUMP JUMPDEST SWAP3 POP DUP3 DUP3 SUB SWAP1 POP DUP2 DUP2 GT ISZERO PUSH2 0xE76 JUMPI PUSH2 0xE75 PUSH2 0xA6C JUMP JUMPDEST JUMPDEST SWAP3 SWAP2 POP POP JUMP JUMPDEST PUSH0 PUSH2 0xE86 DUP3 PUSH2 0x87C JUMP JUMPDEST SWAP2 POP PUSH2 0xE91 DUP4 PUSH2 0x87C JUMP JUMPDEST SWAP3 POP DUP3 DUP3 ADD SWAP1 POP DUP1 DUP3 GT ISZERO PUSH2 0xEA9 JUMPI PUSH2 0xEA8 PUSH2 0xA6C JUMP JUMPDEST JUMPDEST SWAP3 SWAP2 POP POP JUMP INVALID LOG2 PUSH5 0x6970667358 0x22 SLT KECCAK256 PUSH31 0xED740B576380F76085834430487184B6AB17F84FC1459797FC260D1CDBDEE0 PUSH5 0x736F6C6343 STOP ADDMOD NOT STOP CALLER "
		},
		"gasEstimates": {
			"creation": {
				"codeDepositCost": "762600",
				"executionCost": "infinite",
				"totalCost": "infinite"
			},
			"external": {
				"collateralToken()": "infinite",
				"interestRate()": "2425",
				"loans(address)": "infinite",
				"minCollateralizationRatio()": "2491",
				"repayLoan()": "infinite",
				"requestLoan(uint256,uint256)": "infinite"
			},
			"internal": {
				"_calculateCollateralizationRatio(struct SafeLoan.LoanInfo storage pointer)": "infinite",
				"_calculateOutstandingAmount(struct SafeLoan.LoanInfo storage pointer)": "infinite",
				"_sentEtherTo(address,uint256)": "infinite"
			}
		},
		"methodIdentifiers": {
			"collateralToken()": "b2016bd4",
			"interestRate()": "7c3a00fd",
			"loans(address)": "73b4086b",
			"minCollateralizationRatio()": "ba1be554",
			"repayLoan()": "f966ade7",
			"requestLoan(uint256,uint256)": "aa452fa6"
		}
	},
	"abi": [
		{
			"inputs": [
				{
					"internalType": "contract ERC20",
					"name": "_collateralToken",
					"type": "address"
				},
				{
					"internalType": "uint256",
					"name": "_interestRate",
					"type": "uint256"
				},
				{
					"internalType": "uint256",
					"name": "_minCollateralizationRatio",
					"type": "uint256"
				}
			],
			"stateMutability": "nonpayable",
			"type": "constructor"
		},
		{
			"anonymous": false,
			"inputs": [
				{
					"indexed": true,
					"internalType": "address",
					"name": "borrower",
					"type": "address"
				},
				{
					"indexed": false,
					"internalType": "uint256",
					"name": "borrowedAmount",
					"type": "uint256"
				},
				{
					"indexed": false,
					"internalType": "uint256",
					"name": "collateralAmount",
					"type": "uint256"
				}
			],
			"name": "LoanGranted",
			"type": "event"
		},
		{
			"anonymous": false,
			"inputs": [
				{
					"indexed": true,
					"internalType": "address",
					"name": "borrower",
					"type": "address"
				},
				{
					"indexed": false,
					"internalType": "uint256",
					"name": "borrowedAmount",
					"type": "uint256"
				},
				{
					"indexed": false,
					"internalType": "uint256",
					"name": "repaidAmount",
					"type": "uint256"
				}
			],
			"name": "LoanRepaid",
			"type": "event"
		},
		{
			"inputs": [],
			"name": "collateralToken",
			"outputs": [
				{
					"internalType": "contract ERC20",
					"name": "",
					"type": "address"
				}
			],
			"stateMutability": "view",
			"type": "function"
		},
		{
			"inputs": [],
			"name": "interestRate",
			"outputs": [
				{
					"internalType": "uint256",
					"name": "",
					"type": "uint256"
				}
			],
			"stateMutability": "view",
			"type": "function"
		},
		{
			"inputs": [
				{
					"internalType": "address",
					"name": "",
					"type": "address"
				}
			],
			"name": "loans",
			"outputs": [
				{
					"internalType": "address",
					"name": "borrower",
					"type": "address"
				},
				{
					"internalType": "uint256",
					"name": "borrowedAmount",
					"type": "uint256"
				},
				{
					"internalType": "uint256",
					"name": "collateralAmount",
					"type": "uint256"
				},
				{
					"internalType": "uint256",
					"name": "requestedAt",
					"type": "uint256"
				},
				{
					"internalType": "bool",
					"name": "paid",
					"type": "bool"
				}
			],
			"stateMutability": "view",
			"type": "function"
		},
		{
			"inputs": [],
			"name": "minCollateralizationRatio",
			"outputs": [
				{
					"internalType": "uint256",
					"name": "",
					"type": "uint256"
				}
			],
			"stateMutability": "view",
			"type": "function"
		},
		{
			"inputs": [],
			"name": "repayLoan",
			"outputs": [],
			"stateMutability": "payable",
			"type": "function"
		},
		{
			"inputs": [
				{
					"internalType": "uint256",
					"name": "_borrowedAmount",
					"type": "uint256"
				},
				{
					"internalType": "uint256",
					"name": "_collateralAmount",
					"type": "uint256"
				}
			],
			"name": "requestLoan",
			"outputs": [],
			"stateMutability": "nonpayable",
			"type": "function"
		}
	]
}